:100000000C9434000C9451000C9451000C948A030D
:100010000C9451000C9451000C9451000C9451001C
:100020000C9451000C9451000C9451000C9451000C
:100030000C9451000C9451000C9451000C945100FC
:100040000C9451000C9451000C9451000C945100EC
:100050000C9451000C9451000C9451000C945100DC
:100060000C9451000C94510011241FBECFEFD8E026
:10007000DEBFCDBF11E0A0E0B1E0EEE4F1E102C0EF
:1000800005900D92AA37B107D9F711E0AAE7B1E0C0
:1000900001C01D92A538B107E1F70E9453000C94EE
:1000A000A5080C940000DF92EF92FF920F931F932C
:1000B000DF93CF93CDB7DEB768970FB6F894DEBF66
:1000C0000FBECDBF0E9417028AB18C608AB98BB176
:1000D000837F8BB987B1897F87B988B1866088B9FA
:1000E0000E944A030E94C2020E94400282E00E94D3
:1000F000FD0180E091E00E94F10181E060E00E945A
:100100000D028CE091E00E94F10180E197E220E98C
:1001100031E0F9013197F1F70197D9F70E944002D8
:100120008CE291E00E94B407082F8DE291E00E94DA
:10013000B407982F081720F00091390190913801E9
:10014000802F88528D3310F400933901892F885203
:100150008D3310F49093380182E00E94FD0180E01D
:1001600060E00E940D0200D000D000D0EDB7FEB7D5
:1001700031968E010F5F1F4FADB7BEB712961C931D
:100180000E93119786E090E0938382838BE191E058
:10019000958384830E94A6058DB79EB706960FB6F9
:1001A000F8949EBF0FBE8DBFC8010E94F10182E08E
:1001B0000E94FD0181E060E00E940D022091390162
:1001C000ADB7BEB718970FB6F894BEBF0FBEADBFA0
:1001D000EDB7FEB731968E01095F1F4F12961C9343
:1001E0000E93119739E0E32EF12CF382E28281E243
:1001F00091E095838483268317820E94A6058DB79C
:100200009EB708960FB6F8949EBF0FBE8DBFC8016B
:100210000E94F10182E00E94FD0181E068E00E94FD
:100220000D0220913801ADB7BEB718970FB6F894FC
:10023000BEBF0FBEADBFEDB7FEB731968E01005FFA
:100240001F4F12961C930E931197F382E2828AE25B
:1002500091E095838483268317820E94A6058DB73B
:100260009EB708960FB6F8949EBF0FBE8DBFC8010B
:100270000E94F1010E946F050E94940290E9E92E0C
:1002800091E0F92E01E010E08AE0D82E0E94EE0401
:10029000319922C088EE93E0F7013197F1F7019789
:1002A000D9F710937C0100937B0110927E0110928C
:1002B0007D0182E00E94FD0181E063E00E940D0269
:1002C00084E391E00E94F10181E06CE00E940D0264
:1002D00086E391E00E94F101329922C088EE93E01A
:1002E000F7013197F1F70197D9F710937E01009349
:1002F0007D0110927C0110927B0182E00E94FD0141
:1003000081E06CE00E940D0284E391E00E94F10123
:1003100081E063E00E940D0286E391E00E94F1011A
:1003200080917A018823F1F010927A0180917B010B
:1003300090917C01019741F4609139018CE291E048
:100340000E94BC070E94A30480917D0190917E01D0
:10035000019741F4609138018DE291E00E94BC0761
:100360000E945804809139018D9DA0011124809133
:1003700038018D9D9001112480917F019091800121
:100380008417950714F45A9A0FC0281739071CF4DC
:100390005B9A5A987BCF481759070CF077CF821792
:1003A00093070CF073CF5A985B9870CF9BB19F70F6
:1003B0009BB99BB1807F892B8BB9299A299A29985F
:1003C00008951F93182F289A0E94D601812F829595
:1003D000807F0E94D60180E49FE10197F1F71F9191
:1003E0000895CF93DF93EC0102C00E94E10189914F
:1003F0008823D9F7DF91CF9108951F93182F28985C
:100400000E94D601812F8295807F0E94D60180E4D0
:100410009FE10197F1F71F910895882319F4862F22
:10042000805802C0862F80540E94FD01089584B137
:10043000836084B98AB1806F8AB980E69AEE0197A9
:10044000F1F780E30E94D60180E29EE40197F1F784
:1004500080E30E94D60180EE91E00197F1F780E3FE
:100460000E94D60180E20E94D60180E49FE10197BC
:10047000F1F788E20E94FD018FE00E94FD010895DE
:100480000F931F9382E00E94FD0180E060E00E94D4
:100490000D020AE311E0C8010E94F10181E060E071
:1004A0000E940D02C8010E94F1011F910F91089551
:1004B0003B9A80E699E00197F1F73B988CE091E058
:1004C0000197F1F7339B02C080E00895339BFECF84
:1004D00088EC90E00197F1F781E008953B9A8AE07B
:1004E0008A95F1F73B9880EF90E00197F1F7089536
:1004F0003B9A80EF90E00197F1F73B988AE08A956C
:10050000F1F708950F931F93082F18E000FF03C021
:100510000E946E0202C00E947802115011F00695EE
:10052000F5CF1F910F9108950E945802882331F052
:100530008CEC0E94820284E40E94820208953B9A1D
:100540008AE08A95F1F73B9885E38A95F1F786B1C1
:10055000E8ECF0E03197F1F788700895FF920F937F
:100560001F9388E0F82E00E011E00E949F028111A5
:10057000012BFA9411F0110FF8CF802F1F910F91DA
:10058000FF900895EF92FF920F931F93DF93CF9305
:10059000CDB7DEB729970FB6F894DEBF0FBECDBF3B
:1005A0003B9843980E945802882309F442C08CEC7F
:1005B0000E9482028EEB0E9482028E010F5F1F4F0B
:1005C0009AE0E92EF12CEC0EFD1E0E94AE02F8011D
:1005D00081938F01EE15FF05C1F70E945802882311
:1005E00041F18CEC0E9482028EE40E9482028B8197
:1005F0000E9482028C810E9482028FE70E94820206
:1006000080E991E00197F1F70E945802882389F070
:100610008CEC0E94820288E40E94820288EC90E0C6
:1006200020E931E0F9013197F1F70197D9F781E03D
:1006300001C080E029960FB6F894DEBF0FBECDBF93
:10064000CF91DF911F910F91FF90EF9008951F932D
:10065000CF93DF93EC010E949F028823B9F00E94A0
:100660005802882391F08CEC0E9482028EEB0E944B
:1006700082020E94AE0288830E94AE02898310E04B
:100680000E94AE021F5F1730D9F781E0DF91CF9152
:100690001F91089584B1877E84B985B1886185B939
:1006A0008091680081608093680080916B00886110
:1006B00080936B00789483B1982F98709093840105
:1006C00080718093810180918101882339F4809128
:1006D0008401882319F41092820117C0809181014E
:1006E000882331F480918401882311F081E00BC0CC
:1006F00080918101882331F080918401882311F455
:1007000082E001C083E08093820180918201809326
:10071000830108951F920F920FB60F9211248F93A9
:100720009F9383B1982F98709093840180718093E8
:10073000810180918201882369F48091840188235A
:1007400011F081E030C080918101882309F45FC0FD
:1007500082E044C080918201813071F480918101F6
:10076000882311F083E01FC080918401882309F061
:100770004EC01092830134C080918201823071F4A6
:1007800080918401882311F083E028C08091810149
:10079000882309F03CC01092830107C08091840136
:1007A0008823B9F482E08093830180917B0190914A
:1007B0007C01019721F4809139018F5F1AC08091EB
:1007C0007D0190917E01019711F5809138018F5F35
:1007D0001CC0809181018823D1F481E08093830142
:1007E00080917B0190917C01019731F480913901D6
:1007F0008150809339010BC080917D0190917E01E1
:10080000019729F4809138018150809338019091AB
:10081000830180918201981709F443C080913901C6
:10082000853618F084E68093390180913801853649
:1008300018F084E68093380180913901883218F4E9
:1008400088E28093390180913801883218F488E277
:100850008093380180917B0190917C01019751F444
:100860009091390180913801981720F080913801DA
:100870008093390180917D0190917E01019751F41F
:100880009091380180913901891720F080913901C8
:100890008093380181E080937A0180918301809375
:1008A00082019F918F910F900FBE0F901F9018950E
:1008B0000F931F93DF93CF93CDB7DEB729970FB672
:1008C000F894DEBF0FBECDBF82E00E94FD0181E043
:1008D00068E00E940D02209138018DB79EB70897FD
:1008E0000FB6F8949EBF0FBE8DBFEDB7FEB7319621
:1008F0008E010F5F1F4FADB7BEB712961C930E93BC
:10090000119789E090E0938382838BE491E0958353
:100910008483268317820E94A6058DB79EB708960A
:100920000FB6F8949EBF0FBE8DBFC8010E94F101A3
:1009300029960FB6F894DEBF0FBECDBFCF91DF91E1
:100940001F910F9108950F931F93DF93CF93CDB70E
:10095000DEB729970FB6F894DEBF0FBECDBF82E099
:100960000E94FD0181E060E00E940D0220913901AA
:100970008DB79EB708970FB6F8949EBF0FBE8DBF78
:10098000EDB7FEB731968E010F5F1F4FADB7BEB703
:1009900012961C930E93119789E090E093838283C3
:1009A00085E591E095838483268317820E94A605BE
:1009B0008DB79EB708960FB6F8949EBF0FBE8DBF39
:1009C000C8010E94F10129960FB6F894DEBF0FBE50
:1009D000CDBFCF91DF911F910F910895EF92FF92BC
:1009E0000F931F93DF93CF93CDB7DEB72C970FB63E
:1009F000F894DEBF0FBECDBFCE0101960E94270343
:100A0000882309F45FC03A8120E08981280F311DD5
:100A1000C90143E0880F991F4A95E1F7820F931FA0
:100A200068E070E00E947F058B01005C1E4F109310
:100A3000800100937F0182E00E94FD0180E066E07A
:100A40000E940D028DB79EB70A970FB6F8949EBF0D
:100A50000FBE8DBFEDB7FEB7319683E0E82EF12CC7
:100A6000EC0EFD1EADB7BEB71296FC92EE9211973A
:100A70008AE090E0938382838EE591E0958384837E
:100A8000C8016AE070E00E947F05CB0164E670E077
:100A90000E947F0597838683C8016AE070E00E9408
:100AA0007F05918780870E94A6058DB79EB70A961D
:100AB0000FB6F8949EBF0FBE8DBFC7010E94F10113
:100AC0000E9494022C960FB6F894DEBF0FBECDBFE5
:100AD000CF91DF911F910F91FF90EF9008950E94A9
:100AE000C202882359F482E00E94FD0180E060E0A8
:100AF0000E940D0284E691E00E94F101089597FBA7
:100B0000092E07260AD077FD04D00CD006D000208D
:100B10001AF4709561957F4F0895F6F79095819539
:100B20009F4F0895AA1BBB1B51E107C0AA1FBB1F03
:100B3000A617B70710F0A61BB70B881F991F5A9569
:100B4000A9F780959095BC01CD010895AEE0B0E085
:100B5000ECEAF5E00C947C080D891E898F89988D4C
:100B600097FF02C080E090E801979E838D831A83EF
:100B7000098386E08C839E01255E3F4FCE0101965E
:100B8000698D7A8DA9010E94D7054D815E8157FD3F
:100B90000AC02F813885421753070CF49A01020FBF
:100BA000131FF80110822E96E4E00C949808ABE035
:100BB000B0E0EDEDF5E00C946E083C012B015A011C
:100BC000FC0117821682838181FD03C06FEF7FEFE6
:100BD000C6C19AE0892E1E010894211C311CF30124
:100BE0002381F20123FD859123FF81912F01882329
:100BF00009F4B2C1853239F423FD859123FF819137
:100C00002F01853229F490E0B3010E94E407E7CF79
:100C1000982FFF24EE249924FFE1FF15D0F09B329A
:100C200069F09C3228F4903259F0933291F40EC05E
:100C30009D3249F0903369F441E024C052E0F52A36
:100C400084E0F82A28C098E0F92A25C0E0E1FE2ACD
:100C500022C0F7FC29C0892F80538A3070F4F6FE39
:100C600005C0989C902C1124980E15C0E89CE02C8F
:100C70001124E80EF0E2FF2A0EC09E3229F4F6FCA1
:100C80006BC140E4F42A07C09C3619F450E8F52AF9
:100C900002C0983649F4F20123FD959123FF91910A
:100CA0002F01992309F0B8CF892F8554833018F08C
:100CB0008052833038F444E050E0A40EB51E5FE368
:100CC00059830FC0933631F0933779F0933509F09B
:100CD00056C020C0F5018081898342E050E0A40E17
:100CE000B51E610101E010E012C0F501C080D180A5
:100CF000F6FC03C06FEF7FEF02C0692D70E042E0A9
:100D000050E0A40EB51EC6010E94D9078C015FE712
:100D1000F52214C0F501C080D180F6FC03C06FEF4E
:100D20007FEF02C0692D70E042E050E0A40EB51ED6
:100D3000C6010E94CE078C0150E8F52AF3FE07C0D9
:100D40001AC080E290E0B3010E94E407EA948E2D7D
:100D500090E008171907A8F30EC0F601F7FC85917B
:100D6000F7FE81916F0190E0B3010E94E407E1106A
:100D7000EA94015010400115110579F7EAC0943644
:100D800011F0993669F5F7FE08C0F501208131812F
:100D90004281538184E090E00AC0F5018081918115
:100DA0009C01442737FD4095542F82E090E0A80E27
:100DB000B91E9FE6F92257FF09C05095409530951E
:100DC00021953F4F4F4F5F4FE0E8FE2ACA01B9011E
:100DD000A1012AE030E00E941008D82ED21840C0AD
:100DE000953729F41F2D1F7E2AE030E01DC01F2DEE
:100DF000197F9F3661F0903720F4983509F0ACC028
:100E00000FC0903739F0983709F0A6C004C028E029
:100E100030E00AC0106114FD146020E130E004C02D
:100E200014FD166020E132E017FF08C0F501608173
:100E300071818281938144E050E008C0F501808196
:100E40009181BC0180E090E042E050E0A40EB51E2C
:100E5000A1010E941008D82ED2188FE7F82EF12297
:100E6000F6FE0BC05EEFF522D91438F4F4FE07C08D
:100E7000F2FC05C08FEEF82202C01D2D01C0192D15
:100E8000F4FE0DC0FE01ED0DF11D8081803319F4DB
:100E900099EEF92208C01F5FF2FE05C003C08F2D36
:100EA000867809F01F5F0F2DF3FC14C0F0FE0FC011
:100EB0001E1510F09D2C0BC09D2C9E0C911A1E2D02
:100EC00006C080E290E0B3010E94E4071F5F1E1598
:100ED000C0F304C01E1510F4E11A01C0EE2404FF93
:100EE0000FC080E390E0B3010E94E40702FF1DC041
:100EF00001FD03C088E790E00EC088E590E00BC0DC
:100F0000802F867891F001FF02C08BE201C080E261
:100F1000F7FC8DE290E0B3010E94E40706C080E395
:100F200090E0B3010E94E4079A94D914C0F3DA94D4
:100F3000F101ED0DF11D808190E0B3010E94E40705
:100F4000DD20A9F706C080E290E0B3010E94E4072B
:100F5000EA94EE20C1F743CEF30166817781CB019D
:100F60002B96E2E10C948A08F999FECF92BD81BDDF
:100F7000F89A992780B50895262FF999FECF92BD4A
:100F800081BDF89A019700B4021639F01FBA20BD4E
:100F90000FB6F894FA9AF99A0FBE0895FC010590DD
:100FA000615070400110D8F7809590958E0F9F1F6B
:100FB0000895FC016150704001900110D8F78095B0
:100FC00090958E0F9F1F08950F931F93CF93DF93DC
:100FD0008C01EB018B8181FF1BC082FF0DC02E8134
:100FE0003F818C819D812817390764F4E881F9815C
:100FF0000193F983E88306C0E885F985802F099578
:10100000892B31F48E819F8101969F838E8302C04C
:101010000FEF1FEFC801DF91CF911F910F9108953E
:10102000FA01AA27283051F1203181F1E8946F9319
:101030006E7F6E5F7F4F8F4F9F4FAF4FB1E03ED0BF
:10104000B4E03CD0670F781F891F9A1FA11D680F5D
:10105000791F8A1F911DA11D6A0F711D811D911D90
:10106000A11D20D009F468943F912AE0269F112405
:101070003019305D3193DEF6CF010895462F477069
:10108000405D4193B3E00FD0C9F7F6CF462F4F70C4
:10109000405D4A3318F0495D31FD4052419302D022
:1010A000A9F7EACFB4E0A6959795879577956795C8
:1010B000BA95C9F700976105710508959B01AC01C8
:1010C0000A2E06945795479537952795BA95C9F7EF
:1010D000620F731F841F951FA01D08952F923F92CA
:1010E0004F925F926F927F928F929F92AF92BF9238
:1010F000CF92DF92EF92FF920F931F93CF93DF93E4
:10110000CDB7DEB7CA1BDB0B0FB6F894DEBF0FBE40
:10111000CDBF09942A88398848885F846E847D848D
:101120008C849B84AA84B984C884DF80EE80FD808F
:101130000C811B81AA81B981CE0FD11D0FB6F89405
:0E114000DEBF0FBECDBFED010895F894FFCFC6
:10114E00416E647265772043686F750050726F6AE6
:10115E006563742D546865726D6F0054656D703AD9
:10116E00004C6F773D2530336400486967683D2534
:10117E00303364003F003D005A55202020202020AF
:10118E002020202020202020202000486967683F52
:10119E0025303364004C6F773F253033640025646F
:1011AE002E25640053656E736F72206E6F742072FD
:0A11BE006573706F6E64696E670060
:00000001FF
