:100000000C9434000C9451000C9451000C94DD02BB
:100010000C9451000C9451000C9451000C94010369
:100020000C9451000C9451000C9451000C9451000C
:100030000C9451000C9451000C9451000C945100FC
:100040000C9451000C9451000C947D000C945100C0
:100050000C9451000C9451000C9451000C945100DC
:100060000C9451000C94510011241FBECFEFD8E026
:10007000DEBFCDBF11E0A0E0B1E0E0EDFCE002C0EA
:1000800005900D92AC3EB107D9F712E0ACEEB1E0AD
:1000900001C01D92AA31B107E1F70E94AD000C9496
:1000A00066060C9400009093C5008093C40086E01F
:1000B0008093C200E1ECF0E0808188618083539AF4
:1000C0005B980895982F8091C00085FFFCCF909396
:1000D000C6000895AC0120E030E0FA01E20FF31F02
:1000E000E0818091C00085FFFCCFE093C6002F5FC8
:1000F0003F4F2131310589F708951F920F920FB6B6
:100100000F9211248F939F93EF93FF938091C600DA
:10011000E091F201F091F301E65FFD4F8083809161
:10012000F2019091F30101969093F3018093F20113
:100130008091F2019091F301409731F481E090E0D9
:100140009093F1018093F001FF91EF919F918F9136
:100150000F900FBE0F901F9018956F927F928F9205
:100160009F92AF92BF92CF92DF92EF92FF920F9346
:100170001F93DF93CF93CDB7DEB7A1970FB6F89457
:10018000DEBF0FBECDBF0E945B020E949C020E9498
:10019000C70287E690E00E9453008091C10080680A
:1001A0008093C10078940E94840282E00E94410200
:1001B00080E091E00E94350281E060E00E945102FF
:1001C0008CE091E00E94350280E197E220E931E085
:1001D000F9013197F1F70197D9F70E9484020E9443
:1001E000840282E00E94410280E060E00E945102AD
:1001F000E091EC01F091ED018DB79EB708970FB635
:10020000F8949EBF0FBE8DBF2DB73EB72F5F3F4FF7
:10021000CE010196ADB7BEB712969C938E931197FF
:1002200080E190E0D90113969C938E9312978AE116
:1002300091E015969C938E931497EE0FFF1FE95350
:10024000FE4F8081918117969C938E9316970E9402
:10025000810320E137E2EDB7FEB738960FB6F89488
:10026000FEBF0FBEEDBF40E951E0CA010197F1F7B3
:1002700021503040D1F7CE0101960E94350260E94D
:10028000C62E61E0D62E51E0E52EF12C49E0642E19
:10029000712C8E010F5E1F4F31E1832E912C2AE1CC
:1002A000A22E21E0B22E80E00E94B00280930902CB
:1002B000809109028D3218F1809109028433F8F49B
:1002C00088EE93E0F6013197F1F70197D9F7809125
:1002D000EC019091ED01892B29F47092ED0160926F
:1002E000EC0109C08091EC019091ED010197909390
:1002F000ED018093EC01F092EF01E092EE0180912C
:100300000902833618F1809109028636F8F488EEE6
:1003100093E0F6013197F1F70197D9F78091EC015D
:100320009091ED01099729F41092ED011092EC01E2
:1003300009C08091EC019091ED0101969093ED013F
:100340008093EC01F092EF01E092EE018091EE01DA
:100350009091EF01019709F041C082E00E944102B3
:1003600080E060E00E945102E091EC01F091ED012B
:100370008DB79EB708970FB6F8949EBF0FBE8DBF7E
:100380002DB73EB72F5F3F4FADB7BEB712961C9348
:100390000E931197D90113969C928E9212971596EF
:1003A000BC92AE921497EE0FFF1FE953FE4F80816F
:1003B000918117969C938E9316970E948103EDB7B7
:1003C000FEB738960FB6F894FEBF0FBEEDBFC8015A
:1003D0000E9435021092EF011092EE018091090205
:1003E0008C3C80F0809109028F3C60F4E091EC013C
:1003F000F091ED01EE0FFF1FE953FE4F80819181D7
:100400000E946A008091F0019091F101019709F03A
:100410004ACF81E060E00E9451028AE092E00E94AF
:1004200035021092F1011092F0011092F301109236
:10043000F20139CF9BB19F709BB99BB1807F892B13
:100440008BB9299A299A299808951F93182F289AC9
:100450000E941A02812F8295807F0E941A0280E4F6
:100460009FE10197F1F71F910895CF93DF93EC017E
:1004700002C00E94250289918823D9F7DF91CF918C
:1004800008951F93182F28980E941A02812F829591
:10049000807F0E941A0280E49FE10197F1F71F918B
:1004A0000895882319F4862F805802C0862F80541F
:1004B0000E944102089584B1836084B98AB1806F3B
:1004C0008AB980E69AEE0197F1F780E30E941A025A
:1004D00080E29EE40197F1F780E30E941A0280EE29
:1004E00091E00197F1F780E30E941A0280E20E94F6
:1004F0001A0280E49FE10197F1F788E20E9441022D
:100500008FE00E94410208950F931F9382E00E94A2
:10051000410280E060E00E9451020BED11E0C80151
:100520000E94350281E060E00E945102C8010E94F1
:1005300035021F910F910895ECE7F0E0808180640F
:10054000808380818F778083808180628083EAE7E7
:10055000F0E0808187608083808180688083089557
:1005600090917C00907F90937C0090917C008F70A4
:10057000892B80937C0080917A00806480937A003C
:1005800080917A0086FDFCCF809179000895E0EBA0
:10059000F0E080818260808310920702239810929D
:1005A000F501EBE6F0E0808188608083E8E6F0E02A
:1005B000808181608083789408951F920F920FB696
:1005C0000F9211248F931B9916C080916B00877F27
:1005D00080936B001092070287E68093B3008091AE
:1005E00070008260809370001092B2008091B10020
:1005F00082608093B1008F910F900FBE0F901F907B
:1006000018951F920F920FB60F9211242F933F93BC
:100610004F935F936F937F938F939F93AF93BF930A
:10062000EF93FF9380910702811128C01B9915C099
:1006300080E48093070281E0809308021092F40125
:100640008091B100887F8093B1008FEC8093B300DC
:100650008091B10082608093B100FF91EF91BF91D2
:10066000AF919F918F917F916F915F914F913F914A
:100670002F910F900FBE0F901F9018958091070239
:1006800086FFEBCF80910802882359F01B9B05C0A1
:100690009091F401982B9093F401880F80930802B5
:1006A000DCCF8091B100887F8093B1001B9B23C079
:1006B0008091F501E82FF0E0EA50FE4F9091F401AF
:1006C00090838F5F8093F501E82FF0E0EA50FE4FB2
:1006D0001082803151F460E081E00E94510286EF87
:1006E00091E00E9435021092F50180916B008860C4
:1006F00080936B00B2CF80910702806280930702E3
:10070000F4CFAEE0B0E0E7E8F3E00C943D060D89ED
:100710001E898F89988D97FF02C080E090E801972D
:100720009E838D831A83098386E08C839E01255ED8
:100730003F4FCE010196698D7A8DA9010E94B203C7
:100740004D815E8157FD0AC02F81388542175307BE
:100750000CF49A01020F131FF80110822E96E4E0A8
:100760000C945906ABE0B0E0E8EBF3E00C942F06F4
:100770003C012B015A01FC0117821682838181FD05
:1007800003C06FEF7FEFC6C19AE0892E1E01089467
:10079000211C311CF3012381F20123FD859123FFEC
:1007A00081912F01882309F4B2C1853239F423FDE8
:1007B000859123FF81912F01853229F490E0B301C7
:1007C0000E94A505E7CF982FFF24EE249924FFE18E
:1007D000FF15D0F09B3269F09C3228F4903259F02A
:1007E000933291F40EC09D3249F0903369F441E0A8
:1007F00024C052E0F52A84E0F82A28C098E0F92ABB
:1008000025C0E0E1FE2A22C0F7FC29C0892F8053D1
:100810008A3070F4F6FE05C0989C902C1124980E36
:1008200015C0E89CE02C1124E80EF0E2FF2A0EC06F
:100830009E3229F4F6FC6BC140E4F42A07C09C36D2
:1008400019F450E8F52A02C0983649F4F20123FD64
:10085000959123FF91912F01992309F0B8CF892F0A
:100860008554833018F08052833038F444E050E0EF
:10087000A40EB51E5FE359830FC0933631F0933752
:1008800079F0933509F056C020C0F5018081898345
:1008900042E050E0A40EB51E610101E010E012C07C
:1008A000F501C080D180F6FC03C06FEF7FEF02C07E
:1008B000692D70E042E050E0A40EB51EC6010E9412
:1008C0009A058C015FE7F52214C0F501C080D18044
:1008D000F6FC03C06FEF7FEF02C0692D70E042E0CD
:1008E00050E0A40EB51EC6010E948F058C0150E891
:1008F000F52AF3FE07C01AC080E290E0B3010E941F
:10090000A505EA948E2D90E008171907A8F30EC0EC
:10091000F601F7FC8591F7FE81916F0190E0B3013C
:100920000E94A505E110EA9401501040011511053F
:1009300079F7EAC0943611F0993669F5F7FE08C0E8
:10094000F501208131814281538184E090E00AC029
:10095000F501808191819C01442737FD4095542FFA
:1009600082E090E0A80EB91E9FE6F92257FF09C069
:1009700050954095309521953F4F4F4F5F4FE0E8A0
:10098000FE2ACA01B901A1012AE030E00E94D10586
:10099000D82ED21840C0953729F41F2D1F7E2AE08B
:1009A00030E01DC01F2D197F9F3661F0903720F475
:1009B000983509F0ACC00FC0903739F0983709F07E
:1009C000A6C004C028E030E00AC0106114FD146025
:1009D00020E130E004C014FD166020E132E017FF92
:1009E00008C0F501608171818281938144E050E00B
:1009F00008C0F50180819181BC0180E090E042E077
:100A000050E0A40EB51EA1010E94D105D82ED21827
:100A10008FE7F82EF122F6FE0BC05EEFF522D91417
:100A200038F4F4FE07C0F2FC05C08FEEF82202C0D5
:100A30001D2D01C0192DF4FE0DC0FE01ED0DF11D9F
:100A40008081803319F499EEF92208C01F5FF2FE0D
:100A500005C003C08F2D867809F01F5F0F2DF3FCB2
:100A600014C0F0FE0FC01E1510F09D2C0BC09D2C65
:100A70009E0C911A1E2D06C080E290E0B3010E94E8
:100A8000A5051F5F1E15C0F304C01E1510F4E11A62
:100A900001C0EE2404FF0FC080E390E0B3010E9488
:100AA000A50502FF1DC001FD03C088E790E00EC050
:100AB00088E590E00BC0802F867891F001FF02C09E
:100AC0008BE201C080E2F7FC8DE290E0B3010E946E
:100AD000A50506C080E390E0B3010E94A5059A94A5
:100AE000D914C0F3DA94F101ED0DF11D808190E08D
:100AF000B3010E94A505DD20A9F706C080E290E0C1
:100B0000B3010E94A505EA94EE20C1F743CEF3019C
:100B100066817781CB012B96E2E10C944B06FC01B8
:100B20000590615070400110D8F7809590958E0F18
:100B30009F1F0895FC016150704001900110D8F78B
:100B4000809590958E0F9F1F08950F931F93CF93BD
:100B5000DF938C01EB018B8181FF1BC082FF0DC0F5
:100B60002E813F818C819D812817390764F4E881AB
:100B7000F9810193F983E88306C0E885F985802F20
:100B80000995892B31F48E819F8101969F838E83F5
:100B900002C00FEF1FEFC801DF91CF911F910F919E
:100BA0000895FA01AA27283051F1203181F1E89403
:100BB0006F936E7F6E5F7F4F8F4F9F4FAF4FB1E050
:100BC0003ED0B4E03CD0670F781F891F9A1FA11D4B
:100BD000680F791F8A1F911DA11D6A0F711D811D4C
:100BE000911DA11D20D009F468943F912AE0269F11
:100BF00011243019305D3193DEF6CF010895462F70
:100C00004770405D4193B3E00FD0C9F7F6CF462F50
:100C10004F70405D4A3318F0495D31FD40524193B9
:100C200002D0A9F7EACFB4E0A69597958795779576
:100C30006795BA95C9F700976105710508959B01FD
:100C4000AC010A2E06945795479537952795BA9586
:100C5000C9F7620F731F841F951FA01D08952F925F
:100C60003F924F925F926F927F928F929F92AF923C
:100C7000BF92CF92DF92EF92FF920F931F93CF9389
:100C8000DF93CDB7DEB7CA1BDB0B0FB6F894DEBF20
:100C90000FBECDBF09942A88398848885F846E8446
:100CA0007D848C849B84AA84B984C884DF80EE8090
:100CB000FD800C811B81AA81B981CE0FD11D0FB699
:100CC000F894DEBF0FBECDBFED010895F894FFCFBD
:100CD000416E647265772043686F75004C616220D5
:100CE000392D2053657269616C0025730048656C6D
:100CF0006C6F202020202020202020202000486F02
:100D0000772061726520796F753F20202020004593
:100D1000453130392069732066756E21202020000E
:100D2000476F6F64206D6F726E696E67212020209F
:100D300000476F6F64206E6967687421202020204F
:100D40002000536F70686F6D6F72652032303231E2
:100D5000202000456C656374726963616C20456E88
:100D60006720200045453130392069732068617261
:100D70006421202000436F726F6E61766972757313
:100D8000203A282020005A6F6F6D20556E697665D5
:100D9000727369747920001D012E013F01500161B9
:100DA00001720183019401A501B6012020202020B9
:0C0DB000202020202020202020202000D7
:00000001FF
