:100000000C9434000C9451000C9451000C94510049
:100010000C9451000C9451000C9451000C9451001C
:100020000C9451000C9451000C9451000C9453000A
:100030000C9451000C9451000C9451000C945100FC
:100040000C9451000C9451000C9451000C945100EC
:100050000C9451000C9451000C9451000C945100DC
:100060000C9451000C94510011241FBECFEFD8E026
:10007000DEBFCDBF11E0A0E0B1E0E2EDF4E002C0F0
:1000800005900D92A033B107D9F711E0A0E3B1E0DC
:1000900001C01D92AD33B107E1F70E94AE000C9490
:1000A00067020C9400001F920F920FB60F9211245A
:1000B0008F939F9380913B0190913C010196909387
:1000C0003C0180933B0180913B0190913C010A9758
:1000D00000F180913601909137010196909337019C
:1000E0008093360110923C0110923B0180913601C1
:1000F000909137010A9768F08091390190913A0107
:10010000019690933A018093390110923701109231
:1001100036018091390190913A010597C1F480919F
:10012000360190913701099791F480913B019091AC
:100130003C01099761F410923A0110923901109232
:1001400037011092360110923C0110923B019F91B1
:100150008F910F900FBE0F901F901895EF92FF9206
:100160000F931F93CF93DF930E94FB010E943C02E9
:100170000E94240282E00E94E10180E091E00E945E
:10018000D50181E060E00E94F1018CE091E00E94E5
:10019000D50180E197E220E931E0F9013197F1F7EB
:1001A0000197D9F70E942402809181008860809392
:1001B0008100809181008F7E8093810080916F000B
:1001C000826080936F008AE698E190938900809323
:1001D000880080918100846080938100C0E9D1E033
:1001E00001E010E082E0E82EF12C80E00E94500255
:1001F0008093380178948091300190913101892B5E
:1002000089F5809181008B7F8093810080913801F6
:10021000833361F488EE93E0FE013197F1F70197A3
:10022000D9F710933501009334011CC08091380137
:100230008536C1F488EE93E0FE013197F1F701971E
:10024000D9F710923C0110923B01109237011092A5
:10025000360110923A0110923901809181008B7F12
:10026000809381008091300190913101019719F5BF
:100270008091810084608093810080913801833374
:1002800059F488EE93E0FE013197F1F70197D9F721
:10029000109235011092340180913801853659F45D
:1002A00088EE93E0FE013197F1F70197D9F7F092CC
:1002B0003501E09234018091300190913101029733
:1002C000F1F488EE93E0FE013197F1F70197D9F749
:1002D000109333010093320180913801853679F40F
:1002E00088EE93E0FE013197F1F70197D9F710936B
:1002F00035010093340110923301109232012091A4
:1003000034013091350180913001909131012817ED
:10031000390741F08091340190913501909331017A
:10032000809330018091320190913301892B09F043
:100330005CCF82E00E94E10180E062E00E94F10176
:100340008091390190913A01805D0E94C5018091B0
:10035000360190913701805D0E94C5018DE191E0E9
:100360000E94D50180913B0190913C01805D0E94EB
:10037000C5013BCF9BB19F709BB99BB1807F892BFF
:100380008BB9299A299A299808951F93182F289A8A
:100390000E94BA01812F8295807F0E94BA0180E479
:1003A0009FE10197F1F71F910895CF93DF93EC013F
:1003B00002C00E94C50189918823D9F7DF91CF91AE
:1003C00008951F93182F28980E94BA01812F8295B3
:1003D000807F0E94BA0180E49FE10197F1F71F91AD
:1003E0000895882319F4862F805802C0862F8054E0
:1003F0000E94E101089584B1836084B98AB1806F5D
:100400008AB980E69AEE0197F1F780E30E94BA017B
:1004100080E29EE40197F1F780E30E94BA0180EE4A
:1004200091E00197F1F780E30E94BA0180E20E9417
:10043000BA0180E49FE10197F1F788E20E94E101AF
:100440008FE00E94E10108950F931F9382E00E94C4
:10045000E10180E060E00E94F1010FE111E0C801DC
:100460000E94D50181E060E00E94F101C8010E9474
:10047000D5011F910F910895ECE7F0E08081806431
:10048000808380818F778083808180628083EAE7A8
:10049000F0E0808187608083808180688083089518
:1004A00090917C00907F90937C0090917C008F7065
:1004B000892B80937C0080917A00806480937A00FD
:1004C00080917A0086FDFCCF809179000895F894A0
:0204D000FFCF5C
:1004D200416E647265772043686F75004C616220DB
:1004E200382D2053746F707761746368002E00207A
:1004F200202020202020202020202020202020001A
:00000001FF
