:100000000C9434000C943E000C943E000C943E0082
:100010000C943E000C943E000C943E000C943E0068
:100020000C943E000C943E000C943E000C943E0058
:100030000C943E000C943E000C943E000C943E0048
:100040000C943E000C943E000C943E000C943E0038
:100050000C943E000C943E000C943E000C943E0028
:100060000C943E000C943E0011241FBECFEFD8E04C
:10007000DEBFCDBF0E944A000C9406010C94000024
:1000800026B130E002C0359527958A95E2F7822F98
:1000900081700895CF92DF92EF92FF920F931F939A
:1000A000CF93DF933C983A98449A429A0E94DD009D
:1000B000EE24FF24C0E0D0E000E010E020E9C22EF2
:1000C00021E0D22E82E00E94C30088EE93E0F60188
:1000D0003197F1F70197D9F7349929C091E0E92ECA
:1000E000F12C0F5F1F4F0530110561F7E114F1048A
:1000F00061F42196CA30D10514F0C0E0D0E09E0131
:10010000205D822F0E94A7000FC021973FEFCF3FB5
:10011000D30711F4C9E0D0E09E01205D822F0E9438
:10012000A70081E0E82EF12C00E010E0CBCF32995F
:10013000D8CFEE24FF24D5CF9BB19F709BB99BB144
:10014000807F892B8BB9299A299A299808951F9322
:10015000182F289A0E949C00812F8295807F0E94F0
:100160009C0080E49FE10197F1F71F910895CF93E0
:10017000DF93EC0102C00E94A70089918823D9F780
:10018000DF91CF9108951F93182F28980E949C000B
:10019000812F8295807F0E949C0080E49FE10197DF
:1001A000F1F71F910895882319F4862F805802C013
:1001B000862F80540E94C300089584B1836084B95F
:1001C0008AB1806F8AB980E69AEE0197F1F780E3F1
:1001D0000E949C0080E29EE40197F1F780E30E9478
:1001E0009C0080EE91E00197F1F780E30E949C0073
:1001F00080E20E949C0080E49FE10197F1F788E291
:100200000E94C3008FE00E94C3000895F894FFCFBE
:00000001FF
