:100000000C9434000C9449000C9449000C94490061
:100010000C9449000C9449000C9449000C9449003C
:100020000C9449000C9449000C9449000C9449002C
:100030000C9449000C9449000C9449000C9449001C
:100040000C9449000C9449000C9449000C9449000C
:100050000C9449000C9449000C9449000C944900FC
:100060000C9449000C94490011241FBECFEFD8E036
:10007000DEBFCDBF11E0A0E0B1E0E2E2FBE002C0F4
:1000800005900D92AA35B107D9F70E944B000C9448
:100090008F050C9400002F923F924F925F926F92C7
:1000A0007F928F929F92AF92BF92CF92DF92EF9208
:1000B000FF920F931F93DF93CF93CDB7DEB7C65652
:1000C000D0400FB6F894DEBF0FBECDBF87B18B7E98
:1000D00087B988B1846188B90E9469020E9492023E
:1000E00082E00E944F0280E060E00E945F0280E0B8
:1000F00091E00E9443028DB79EB70C970FB6F8941B
:100100009EBF0FBE8DBFEDB7FEB731968E010F5F5C
:100110001F4FADB7BEB712961C930E9311978AE08E
:1001200090E0938382838CE091E09583848383E0E5
:1001300090E0978386838DE090E09187808781EDC2
:1001400097E0938782870E94AA028DB79EB70C968C
:100150000FB6F8949EBF0FBE8DBF81E065E00E9490
:100160005F02C8010E94430280E197E220E931E08A
:10017000F9013197F1F70197D9F70E94920286B100
:1001800086B182E00E944F0280E060E00E945F0240
:10019000ADB7BEB718970FB6F894BEBF0FBEADBFD0
:1001A000EDB7FEB731968E01055F1F4F12961C9377
:1001B0000E9311978FE090E09383828385E1E82E80
:1001C00081E0F82EF582E482178216820E94AA024C
:1001D0008DB79EB708960FB6F8949EBF0FBE8DBF21
:1001E000C8010E94430281E060E00E945F02ADB757
:1001F000BEB718970FB6F894BEBF0FBEADBFEDB730
:10020000FEB7319619E2C12ED12CCC0EDD1E12960E
:10021000DC92CE9211978EE190E09383828381E20B
:1002200091E0958384830CE211E0178306830E949A
:10023000AA028DB79EB708960FB6F8949EBF0FBE60
:100240008DBFC6010E944302AA24BB24CC24DD2416
:10025000480120E030E000E911E0FAE16F2E712C56
:100260006C0E7D1EA696EFAEA697A796FFAEA7973B
:10027000E7E4EE2EF12CEC0EFD1E7EE1272E312C54
:100280006CE3462E61E0562E03C0560120E030E0BC
:1002900096B1907186B18470A114B10459F4882389
:1002A00009F06BC088EE93E0F8013197F1F7019700
:1002B000D9F7CAC0A1E0AA16B10471F4992309F0D4
:1002C0005CC088EE93E0F8013197F1F70197D9F718
:1002D00052E0C52ED12C58C0B2E0AB16B104C1F427
:1002E000882341F488EE93E0F8013197F1F7019704
:1002F000D9F7AAC0992309F040C088EE93E0F8012D
:100300003197F1F70197D9F743E0C42ED12C3CC0C7
:1003100043E0A416B104D9F4992341F488EE93E0A4
:10032000F8013197F1F70197D9F78BC0882329F5A8
:1003300088EE93E0F8013197F1F70197D9F734E0AF
:10034000C32ED12C23E3822E21E0922E1DC0A4E0E7
:10035000AA16B10491F4992311F0882371F488EE60
:1003600093E0F8013197F1F70197D9F7CC24DD2418
:100370009CE2892E91E0992E07C0CA14DB0421F477
:100380002130310509F081CF560182E00E944F02F1
:1003900080E060E00E945F028DB79EB708970FB6BD
:1003A000F8949EBF0FBE8DBFEDB7FEB73196ADB7C7
:1003B000BEB712967C926E9211978FE090E0938375
:1003C0008283A6969FADA6979483A796AFADA79775
:1003D000A583D782C6820E94AA028DB79EB70896CF
:1003E0000FB6F8949EBF0FBE8DBFC3010E9443029B
:1003F00081E060E00E945F02ADB7BEB718970FB60C
:10040000F894BEBF0FBEADBFEDB7FEB731961296E2
:10041000FC92EE9211973382228255824482978217
:1004200086820E94AA028DB79EB708960FB6F894EE
:100430009EBF0FBE8DBFC7010E94430221E030E086
:1004400027CFCC24DD24A0CF81E0C82ED12C9CCF97
:100450009BB19F709BB99BB1807F892B8BB9299AE7
:10046000299A299808951F93182F289A0E942802E4
:10047000812F8295807F0E94280280E49FE101976E
:10048000F1F71F910895CF93DF93EC0102C00E9412
:10049000330289918823D9F7DF91CF9108951F9373
:1004A000182F28980E942802812F8295807F0E9411
:1004B000280280E49FE10197F1F71F9108958823B6
:1004C00019F4862F805802C0862F80540E944F0254
:1004D000089584B1836084B98AB1806F8AB980E657
:1004E0009AEE0197F1F780E30E94280280E29EE4F1
:1004F0000197F1F780E30E94280280EE91E00197D6
:10050000F1F780E30E94280280E20E94280280E442
:100510009FE10197F1F788E20E944F028FE00E946D
:100520004F0208950F931F9382E00E944F0280E0D4
:1005300060E00E945F0209E411E0C8010E944302EA
:1005400081E060E00E945F02C8010E9443021F91A7
:100550000F910895AEE0B0E0E0EBF2E00C94660598
:100560000D891E898F89988D97FF02C080E090E8E1
:1005700001979E838D831A83098386E08C839E0175
:10058000255E3F4FCE010196698D7A8DA9010E94AB
:10059000DB024D815E8157FD0AC02F8138854217ED
:1005A00053070CF49A01020F131FF80110822E96C4
:1005B000E4E00C948205ABE0B0E0E1EEF2E00C94F4
:1005C00058053C012B015A01FC01178216828381D8
:1005D00081FD03C06FEF7FEFC6C19AE0892E1E0137
:1005E0000894211C311CF3012381F20123FD859124
:1005F00023FF81912F01882309F4B2C1853239F498
:1006000023FD859123FF81912F01853229F490E00C
:10061000B3010E94CE04E7CF982FFF24EE24992443
:10062000FFE1FF15D0F09B3269F09C3228F4903244
:1006300059F0933291F40EC09D3249F0903369F431
:1006400041E024C052E0F52A84E0F82A28C098E06E
:10065000F92A25C0E0E1FE2A22C0F7FC29C0892F33
:1006600080538A3070F4F6FE05C0989C902C1124BB
:10067000980E15C0E89CE02C1124E80EF0E2FF2A49
:100680000EC09E3229F4F6FC6BC140E4F42A07C088
:100690009C3619F450E8F52A02C0983649F4F20164
:1006A00023FD959123FF91912F01992309F0B8CF54
:1006B000892F8554833018F08052833038F444E019
:1006C00050E0A40EB51E5FE359830FC0933631F09E
:1006D000933779F0933509F056C020C0F501808139
:1006E000898342E050E0A40EB51E610101E010E0F4
:1006F00012C0F501C080D180F6FC03C06FEF7FEF20
:1007000002C0692D70E042E050E0A40EB51EC601A3
:100710000E94C3048C015FE7F52214C0F501C0807C
:10072000D180F6FC03C06FEF7FEF02C0692D70E04F
:1007300042E050E0A40EB51EC6010E94B8048C0130
:1007400050E8F52AF3FE07C01AC080E290E0B3013A
:100750000E94CE04EA948E2D90E008171907A8F3A2
:100760000EC0F601F7FC8591F7FE81916F0190E0D4
:10077000B3010E94CE04E110EA940150104001152B
:10078000110579F7EAC0943611F0993669F5F7FE4C
:1007900008C0F501208131814281538184E090E0DD
:1007A0000AC0F501808191819C01442737FD409565
:1007B000542F82E090E0A80EB91E9FE6F92257FF61
:1007C00009C050954095309521953F4F4F4F5F4F51
:1007D000E0E8FE2ACA01B901A1012AE030E00E9446
:1007E000FA04D82ED21840C0953729F41F2D1F7E49
:1007F0002AE030E01DC01F2D197F9F3661F0903731
:1008000020F4983509F0ACC00FC0903739F0983714
:1008100009F0A6C004C028E030E00AC0106114FD51
:10082000146020E130E004C014FD166020E132E0E5
:1008300017FF08C0F501608171818281938144E0D6
:1008400050E008C0F50180819181BC0180E090E01A
:1008500042E050E0A40EB51EA1010E94FA04D82E79
:10086000D2188FE7F82EF122F6FE0BC05EEFF522CC
:10087000D91438F4F4FE07C0F2FC05C08FEEF8225C
:1008800002C01D2D01C0192DF4FE0DC0FE01ED0D9D
:10089000F11D8081803319F499EEF92208C01F5FA1
:1008A000F2FE05C003C08F2D867809F01F5F0F2D63
:1008B000F3FC14C0F0FE0FC01E1510F09D2C0BC0F1
:1008C0009D2C9E0C911A1E2D06C080E290E0B30173
:1008D0000E94CE041F5F1E15C0F304C01E1510F445
:1008E000E11A01C0EE2404FF0FC080E390E0B301E1
:1008F0000E94CE0402FF1DC001FD03C088E790E006
:100900000EC088E590E00BC0802F867891F001FF43
:1009100002C08BE201C080E2F7FC8DE290E0B301FF
:100920000E94CE0406C080E390E0B3010E94CE0492
:100930009A94D914C0F3DA94F101ED0DF11D808180
:1009400090E0B3010E94CE04DD20A9F706C080E24A
:1009500090E0B3010E94CE04EA94EE20C1F743CEAA
:10096000F30166817781CB012B96E2E10C9474054B
:10097000FC010590615070400110D8F7809590956A
:100980008E0F9F1F0895FC0161507040019001106F
:10099000D8F7809590958E0F9F1F08950F931F9302
:1009A000CF93DF938C01EB018B8181FF1BC082FF12
:1009B0000DC02E813F818C819D812817390764F4F9
:1009C000E881F9810193F983E88306C0E885F98518
:1009D000802F0995892B31F48E819F8101969F8309
:1009E0008E8302C00FEF1FEFC801DF91CF911F91DF
:1009F0000F910895FA01AA27283051F1203181F191
:100A0000E8946F936E7F6E5F7F4F8F4F9F4FAF4F16
:100A1000B1E03ED0B4E03CD0670F781F891F9A1F29
:100A2000A11D680F791F8A1F911DA11D6A0F711DDD
:100A3000811D911DA11D20D009F468943F912AE0E9
:100A4000269F11243019305D3193DEF6CF010895D1
:100A5000462F4770405D4193B3E00FD0C9F7F6CF02
:100A6000462F4F70405D4A3318F0495D31FD4052CA
:100A7000419302D0A9F7EACFB4E0A6959795879560
:100A800077956795BA95C9F700976105710508953F
:100A90009B01AC010A2E06945795479537952795EB
:100AA000BA95C9F7620F731F841F951FA01D089583
:100AB0002F923F924F925F926F927F928F929F926E
:100AC000AF92BF92CF92DF92EF92FF920F931F935C
:100AD000CF93DF93CDB7DEB7CA1BDB0B0FB6F8940D
:100AE000DEBF0FBECDBF09942A88398848885F844D
:100AF0006E847D848C849B84AA84B984C884DF80BE
:100B0000EE80FD800C811B81AA81B981CE0FD11DA1
:100B10000FB6F894DEBF0FBECDBFED010895F89477
:020B2000FFCF05
:100B2200416E647265772043686F750025642D25D8
:100B3200642D2564005374617465203D205325643F
:100B4200005374617475733A202573006C6F636B84
:100B5200656400756E6C6F636B65640053746174D9
:100B620075733A2025732020002020202020202089
:0A0B72002020202020202020200059
:00000001FF
