:100000000C9434000C943E000C943E000C943E0082
:100010000C943E000C943E000C943E000C943E0068
:100020000C943E000C943E000C943E000C943E0058
:100030000C943E000C943E000C943E000C943E0048
:100040000C943E000C943E000C943E000C943E0038
:100050000C943E000C943E000C943E000C943E0028
:100060000C943E000C943E0011241FBECFEFD8E04C
:10007000DEBFCDBF0E946A000C94A9000C94000062
:100080005A9A84EC99E020E931E0F9013197F1F7CF
:100090000197D9F75A9884EC99E020E931E0F90109
:1000A0003197F1F70197D9F708955A9A8CE49DE1B9
:1000B00020E931E0F9013197F1F70197D9F75A9822
:1000C00084EC99E020E931E0F9013197F1F70197EB
:1000D000D9F70895CF93DF93529A5A98239824988A
:1000E00025982B9A2C9A2D9AC0E9D1E01B991CC017
:1000F0000E9455000E9440000E94550004C00E94CA
:1001000040000E9440000E94400006C00E94400043
:100110000E9440000E9455008CE49DE1FE01319751
:10012000F1F7019719F3FACF1C9BE9CF1D9BEECF96
:10013000F3CF882311F05A9A08955A98089523B15D
:1001400030E002C0359527958A95E2F7822F8170BD
:060150000895F894FFCFB2
:00000001FF
