:100000000C9434000C9449000C9449000C94490061
:100010000C9449000C9449000C9449000C9449003C
:100020000C9449000C9449000C9449000C9449002C
:100030000C9449000C9449000C9449000C9449001C
:100040000C9449000C9449000C9449000C9449000C
:100050000C9449000C9449000C9449000C944900FC
:100060000C9449000C94490011241FBECFEFD8E036
:10007000DEBFCDBF11E0A0E0B1E0E4E4F6E002C0F5
:1000800005900D92A634B107D9F70E946B000C942D
:1000900020030C9400000F931F93CF93DF93C0E0D5
:1000A000D0E000E00EC0812F0E94EE01CC0FDD1FDA
:1000B0008170C80FD11D1F5F1630A9F70F5F033085
:1000C00011F011E0F0CFCE010E948202DF91CF91BA
:1000D0001F910F9108956F927F928F929F92AF928E
:1000E000BF92DF92EF92FF920F931F93CF93DF9314
:1000F0000E9499010E94DA010E944B000E94C201F5
:1001000082E00E947F0180E060E00E948F0180E039
:1001100091E00E94730181E060E00E948F018CE019
:1001200091E00E94730180E197E220E931E0F9015A
:100130003197F1F70197D9F70E94C2010E947D0221
:1001400060E170E00E9405028C0182E00E947F0164
:1001500080E0602F0E948F0189E191E00E9473018D
:1001600082E00E947F0183E00E94EE01E82EFF24DE
:100170008FE0E822FF2481E06E2D0E948F018BE149
:1001800091E00E947301AA24BB2440E9842E41E03F
:10019000942E30E4632E3CE9732E02C0AA24BB24C3
:1001A00080E00E94EE01D82E8A598330F0F488EE68
:1001B00093E0F4013197F1F70197D9F7E80121971E
:1001C0000C171D0791F080E0602F0E948F018DE1D8
:1001D00091E00E94730180E06C2F0E948F0189E101
:1001E00091E00E947301BE0101C0B801DD20E9F475
:1001F00088EE93E0F4013197F1F70197D9F7E80120
:1002000021966C177D0789F080E00E948F018DE1B7
:1002100091E00E94730180E06C2F0E948F0189E1C0
:1002200091E00E9473018E0101C08B0183E00E9466
:10023000EE01D82ED2942FE0D222CD2DD0E0EC16B4
:10024000FD0689F081E06E2D0E948F018DE191E025
:100250000E94730181E06D2D0E948F018BE191E07E
:100260000E9473017E01C3010197F1F7E016F106C8
:1002700009F094CF0894A11CB11C88ECA816B10415
:1002800009F08ECF0E94C20182E00E947F0180E0CF
:1002900064E00E948F018FE191E00E94730181E090
:1002A00064E00E948F0188E291E00E94730178CFA0
:1002B0009BB19F709BB99BB1807F892B8BB9299A89
:1002C000299A299808951F93182F289A0E94580157
:1002D000812F8295807F0E94580180E49FE10197E1
:1002E000F1F71F910895CF93DF93EC0102C00E94B4
:1002F000630189918823D9F7DF91CF9108951F93E6
:10030000182F28980E945801812F8295807F0E9483
:10031000580180E49FE10197F1F71F910895882328
:1003200019F4862F805802C0862F80540E947F01C6
:10033000089584B1836084B98AB1806F8AB980E6F8
:100340009AEE0197F1F780E30E94580180E29EE463
:100350000197F1F780E30E94580180EE91E0019748
:10036000F1F780E30E94580180E20E94580180E486
:100370009FE10197F1F788E20E947F018FE00E94E0
:100380007F0108950F931F9382E00E947F0180E018
:1003900060E00E948F0101E311E0C8010E94730137
:1003A00081E060E00E948F01C8010E9473011F91EB
:1003B0000F910895ECE7F0E0808180648083808174
:1003C0008F778083808180628083EAE7F0E080819C
:1003D00087608083808180688083089590917C000D
:1003E000907F90937C0090917C008F70892B8093FC
:1003F0007C0080917A00806480937A0080917A00FA
:1004000086FDFCCF80917900089597FB092E072681
:100410000AD077FD04D00CD006D000201AF47095D5
:1004200061957F4F0895F6F7909581959F4F0895B8
:10043000AA1BBB1B51E107C0AA1FBB1FA617B7070A
:1004400010F0A61BB70B881F991F5A95A9F7809526
:100450009095BC01CD010895A0E0B0E0E2E3F2E0A8
:100460000C94CF02EC01A880B980CA80DB80A11473
:10047000B104C104D10441F484E2A82E89EDB82E60
:100480008BE5C82E87E0D82EC601B5012DE133EFEC
:1004900041E050E00E94AC0227EA31E440E050E045
:1004A0000E948D027B018C01C601B5012DE133EF65
:1004B00041E050E00E94AC02CA01B9012CEE34EFD9
:1004C0004FEF5FEF0E948D026E0D7F1D801F911F09
:1004D00097FF04C0615070408040904868837983E2
:1004E0008A839B839B013F77C901CDB7DEB7EAE0E2
:1004F0000C94EB020E942C02089582E491E00E9489
:100500002C020895A0E0B0E0809342019093430153
:10051000A0934401B09345010895629FD001739F59
:10052000F001829FE00DF11D649FE00DF11D929F8F
:10053000F00D839FF00D749FF00D659FF00D9927CE
:10054000729FB00DE11DF91F639FB00DE11DF91FF2
:10055000BD01CF011124089597FB092E05260ED069
:1005600057FD04D04BD00AD0001C38F4509540956C
:10057000309521953F4F4F4F5F4F0895F6F7909577
:100580008095709561957F4F8F4F9F4F08952F9263
:100590003F924F925F926F927F928F929F92AF9213
:1005A000BF92CF92DF92EF92FF920F931F93CF9360
:1005B000DF93CDB7DEB7CA1BDB0B0FB6F894DEBFF7
:1005C0000FBECDBF09942A88398848885F846E841D
:1005D0007D848C849B84AA84B984C884DF80EE8067
:1005E000FD800C811B81AA81B981CE0FD11D0FB670
:1005F000F894DEBF0FBECDBFED010895A1E21A2E23
:10060000AA1BBB1BFD010DC0AA1FBB1FEE1FFF1FB6
:10061000A217B307E407F50720F0A21BB30BE40B06
:10062000F50B661F771F881F991F1A9469F760954D
:100630007095809590959B01AC01BD01CF01089507
:04064000F894FFCF5C
:10064400416E647265772043686F75004C61622067
:1006540036202D2047616D650058005E0020004360
:100664006F6E677261747300796F7520776F6E2196
:100674000020202020202020202020202020202096
:060684002000010000004F
:00000001FF
