:100000000C9434000C9451000C9451000C94510049
:100010000C9453000C9451000C9451000C9451001A
:100020000C9451000C9451000C9451000C9451000C
:100030000C9451000C9451000C9451000C945100FC
:100040000C9451000C9451000C9451000C945100EC
:100050000C9451000C9451000C9451000C945100DC
:100060000C9451000C94510011241FBECFEFD8E026
:10007000DEBFCDBF11E0A0E0B1E0E4E9FBE002C0EB
:1000800005900D92A234B107D9F711E0A2E4B1E0D6
:1000900001C01D92A934B107E1F70E94FB000C9446
:1000A000C8050C9400001F920F920FB60F921124F6
:1000B0008F939F9386B182708093480186B180723E
:1000C0008093450180914601882369F4809148011D
:1000D000882311F081E02EC080914501882309F426
:1000E00041C082E034C080914601813069F4809142
:1000F0004501882311F083E01DC0809148018823C9
:1001000089F51092470125C080914601823069F43B
:1001100080914801882311F083E019C08091450146
:10012000882301F51092470107C080914801882378
:1001300049F482E08093470180914301909144010A
:1001400001960CC080914501882361F481E0809381
:10015000470180914301909144010197909344019C
:10016000809343019091470180914601981739F09F
:1001700081E08093420180914701809346019F91E5
:100180008F910F900FBE0F901F90189505966AE003
:1001900070E00E947F02CB0135E303C0232F2A9534
:1001A000F1F701972FEF8F3F9207C1F708950F9353
:1001B0001F93CF93DF93EC019C0140E050E060E49B
:1001C00072E48FE090E00E94920256954795379531
:1001D0002795890109C02C9AC8010E94C6002C9855
:1001E000C8010E94C60021972097A9F7DF91CF91FF
:1001F0001F910F910895CF92DF92EF92FF920F938C
:100200001F93DF93CF93CDB7DEB72A970FB6F8943D
:10021000DEBF0FBECDBF0E943E0287B18D7D87B984
:1002200088B1826288B9249A2C980E94670282E081
:100230000E94240280E091E00E94180281E060E0C8
:100240000E9434028CE091E00E94180280E197E263
:1002500020E931E0F9013197F1F70197D9F70E94D0
:10026000670282E00E94240281E065E00E9434027D
:1002700020914301309144018DB79EB708970FB686
:10028000F8949EBF0FBE8DBFEDB7FEB731968E01BD
:100290000F5F1F4FADB7BEB712961C930E93119709
:1002A00085E090E0938382838BE191E09583848362
:1002B000378326830E94E3022DB73EB7285F3F4F66
:1002C0000FB6F8943EBF0FBE2DBFC8010E941802A2
:1002D00086B182708093480186B180728093450117
:1002E00080914501882339F480914801882319F4CD
:1002F0001092460117C080914501882331F4809106
:100300004801882311F081E00BC0809145018823CA
:1003100031F080914801882311F482E001C083E02C
:100320008093460180914601809347018091680047
:1003300082608093680080916C00826280936C0080
:100340008E010A5F1F4F35E0C32ED12C2BE1E22E28
:1003500021E0F22E7894809142018823D9F3109203
:10036000420182E00E94240281E065E00E943402A2
:100370008091430190914401ADB7BEB718970FB675
:10038000F894BEBF0FBEADBFEDB7FEB73196129663
:100390001C930E931197D382C282F582E4829783D5
:1003A00086830E94E3022DB73EB7285F3F4F0FB60A
:1003B000F8943EBF0FBE2DBFC8010E941802809165
:1003C00043019091440187709070892B19F6E09158
:1003D0004301F0914401F7FF03C0F095E195FF4F11
:1003E000F695E795F695E795EE70F070E05EFE4FB6
:1003F000808191810E94D700ADCF9BB19F709BB946
:100400009BB1807F892B8BB9299A299A29980895C5
:100410001F93182F289A0E94FD01812F8295807FBB
:100420000E94FD0180E49FE10197F1F71F9108957B
:10043000CF93DF93EC0102C00E94080289918823C8
:10044000D9F7DF91CF9108951F93182F28980E9414
:10045000FD01812F8295807F0E94FD0180E49FE154
:100460000197F1F71F910895882319F4862F80587A
:1004700002C0862F80540E942402089584B18360B4
:1004800084B98AB1806F8AB980E69AEE0197F1F754
:1004900080E30E94FD0180E29EE40197F1F780E392
:1004A0000E94FD0180EE91E00197F1F780E30E9448
:1004B000FD0180E20E94FD0180E49FE10197F1F7D8
:1004C00088E20E9424028FE00E94240208950F9384
:1004D0001F9382E00E94240280E060E00E943402C8
:1004E00000E311E0C8010E94180281E060E00E9470
:1004F0003402C8010E9418021F910F91089597FBC2
:10050000092E07260AD077FD04D027D006D0002078
:100510001AF4709561957F4F0895F6F7909581953F
:100520009F4F089597FB092E05260ED057FD04D046
:1005300028D00AD0001C38F450954095309521956C
:100540003F4F4F4F5F4F0895F6F790958095709508
:1005500061957F4F8F4F9F4F0895AA1BBB1B51E1A1
:1005600007C0AA1FBB1FA617B70710F0A61BB70B23
:10057000881F991F5A95A9F780959095BC01CD01C8
:100580000895A1E21A2EAA1BBB1BFD010DC0AA1FD4
:10059000BB1FEE1FFF1FA217B307E407F50720F0EC
:1005A000A21BB30BE40BF50B661F771F881F991F67
:1005B0001A9469F760957095809590959B01AC01B0
:1005C000BD01CF010895AEE0B0E0E9EEF2E00C9499
:1005D0009F050D891E898F89988D97FF02C080E045
:1005E00090E801979E838D831A83098386E08C832C
:1005F0009E01255E3F4FCE010196698D7A8DA9013E
:100600000E9414034D815E8157FD0AC02F813885F9
:10061000421753070CF49A01020F131FF8011082BE
:100620002E96E4E00C94BB05ABE0B0E0EAE1F3E029
:100630000C9491053C012B015A01FC011782168292
:10064000838181FD03C06FEF7FEFC6C19AE0892EE1
:100650001E010894211C311CF3012381F20123FDAA
:10066000859123FF81912F01882309F4B2C185323E
:1006700039F423FD859123FF81912F01853229F4DF
:1006800090E0B3010E940705E7CF982FFF24EE24E6
:100690009924FFE1FF15D0F09B3269F09C3228F4D9
:1006A000903259F0933291F40EC09D3249F090335C
:1006B00069F441E024C052E0F52A84E0F82A28C019
:1006C00098E0F92A25C0E0E1FE2A22C0F7FC29C003
:1006D000892F80538A3070F4F6FE05C0989C902CC8
:1006E0001124980E15C0E89CE02C1124E80EF0E2CD
:1006F000FF2A0EC09E3229F4F6FC6BC140E4F42AB6
:1007000007C09C3619F450E8F52A02C0983649F41F
:10071000F20123FD959123FF91912F01992309F077
:10072000B8CF892F8554833018F08052833038F445
:1007300044E050E0A40EB51E5FE359830FC093362A
:1007400031F0933779F0933509F056C020C0F501A8
:100750008081898342E050E0A40EB51E610101E072
:1007600010E012C0F501C080D180F6FC03C06FEF2D
:100770007FEF02C0692D70E042E050E0A40EB51E8C
:10078000C6010E94FC048C015FE7F52214C0F5014C
:10079000C080D180F6FC03C06FEF7FEF02C0692DEF
:1007A00070E042E050E0A40EB51EC6010E94F104C4
:1007B0008C0150E8F52AF3FE07C01AC080E290E0F1
:1007C000B3010E940705EA948E2D90E008171907DF
:1007D000A8F30EC0F601F7FC8591F7FE81916F0139
:1007E00090E0B3010E940705E110EA940150104027
:1007F0000115110579F7EAC0943611F0993669F5BB
:10080000F7FE08C0F501208131814281538184E0E7
:1008100090E00AC0F501808191819C01442737FD59
:100820004095542F82E090E0A80EB91E9FE6F92271
:1008300057FF09C050954095309521953F4F4F4F38
:100840005F4FE0E8FE2ACA01B901A1012AE030E0C9
:100850000E943305D82ED21840C0953729F41F2D99
:100860001F7E2AE030E01DC01F2D197F9F3661F0EA
:10087000903720F4983509F0ACC00FC0903739F0AC
:10088000983709F0A6C004C028E030E00AC0106123
:1008900014FD146020E130E004C014FD166020E176
:1008A00032E017FF08C0F501608171818281938178
:1008B00044E050E008C0F50180819181BC0180E0F6
:1008C00090E042E050E0A40EB51EA1010E94330565
:1008D000D82ED2188FE7F82EF122F6FE0BC05EEF6D
:1008E000F522D91438F4F4FE07C0F2FC05C08FEEEF
:1008F000F82202C01D2D01C0192DF4FE0DC0FE010D
:10090000ED0DF11D8081803319F499EEF92208C0B4
:100910001F5FF2FE05C003C08F2D867809F01F5FB0
:100920000F2DF3FC14C0F0FE0FC01E1510F09D2C0F
:100930000BC09D2C9E0C911A1E2D06C080E290E0EB
:10094000B3010E9407051F5F1E15C0F304C01E15EA
:1009500010F4E11A01C0EE2404FF0FC080E390E020
:10096000B3010E94070502FF1DC001FD03C088E717
:1009700090E00EC088E590E00BC0802F867891F063
:1009800001FF02C08BE201C080E2F7FC8DE290E043
:10099000B3010E94070506C080E390E0B3010E9406
:1009A00007059A94D914C0F3DA94F101ED0DF11D05
:1009B000808190E0B3010E940705DD20A9F706C001
:1009C00080E290E0B3010E940705EA94EE20C1F7AF
:1009D00043CEF30166817781CB012B96E2E10C9443
:1009E000AD05FC010590615070400110D8F780956D
:1009F00090958E0F9F1F0895FC01615070400190EB
:100A00000110D8F7809590958E0F9F1F08950F9332
:100A10001F93CF93DF938C01EB018B8181FF1BC070
:100A200082FF0DC02E813F818C819D81281739075F
:100A300064F4E881F9810193F983E88306C0E885CD
:100A4000F985802F0995892B31F48E819F8101963C
:100A50009F838E8302C00FEF1FEFC801DF91CF91FC
:100A60001F910F910895FA01AA27283051F12031E2
:100A700081F1E8946F936E7F6E5F7F4F8F4F9F4F32
:100A8000AF4FB1E03ED0B4E03CD0670F781F891F74
:100A90009A1FA11D680F791F8A1F911DA11D6A0F42
:100AA000711D811D911DA11D20D009F468943F91F5
:100AB0002AE0269F11243019305D3193DEF6CF01F4
:100AC0000895462F4770405D4193B3E00FD0C9F7BA
:100AD000F6CF462F4F70405D4A3318F0495D31FD27
:100AE0004052419302D0A9F7EACFB4E0A69597957A
:100AF000879577956795BA95C9F700976105710550
:100B000008959B01AC010A2E069457954795379599
:100B10002795BA95C9F7620F731F841F951FA01DF3
:100B200008952F923F924F925F926F927F928F9291
:100B30009F92AF92BF92CF92DF92EF92FF920F936C
:100B40001F93CF93DF93CDB7DEB7CA1BDB0B0FB676
:100B5000F894DEBF0FBECDBF09942A883988488833
:100B60005F846E847D848C849B84AA84B984C884C9
:100B7000DF80EE80FD800C811B81AA81B981CE0FC0
:100B8000D11D0FB6F894DEBF0FBECDBFED010895A5
:040B9000F894FFCF07
:100B9400416E647265772043686F75004C61622012
:100BA400372D20456E636F64657200253033640011
:100BB400060126014A015D018801B801EE010B021C
:100BC4002020202020202020202020202020202021
:020BD40000001F
:00000001FF
